{
  "_format": "hh-sol-artifact-1",
  "contractName": "AgentMarketplace",
  "sourceName": "contracts/AgentMarketplace.sol",
  "abi": [
    {
      "inputs": [
        {
          "internalType": "address",
          "name": "_usdc",
          "type": "address"
        },
        {
          "internalType": "address",
          "name": "_reputationRegistry",
          "type": "address"
        }
      ],
      "stateMutability": "nonpayable",
      "type": "constructor"
    },
    {
      "inputs": [],
      "name": "ReentrancyGuardReentrantCall",
      "type": "error"
    },
    {
      "anonymous": false,
      "inputs": [
        {
          "indexed": true,
          "internalType": "uint256",
          "name": "jobId",
          "type": "uint256"
        },
        {
          "indexed": true,
          "internalType": "address",
          "name": "agent",
          "type": "address"
        },
        {
          "indexed": false,
          "internalType": "uint256",
          "name": "price",
          "type": "uint256"
        },
        {
          "indexed": false,
          "internalType": "string",
          "name": "metadataURI",
          "type": "string"
        }
      ],
      "name": "BidSubmitted",
      "type": "event"
    },
    {
      "anonymous": false,
      "inputs": [
        {
          "indexed": true,
          "internalType": "uint256",
          "name": "jobId",
          "type": "uint256"
        },
        {
          "indexed": true,
          "internalType": "address",
          "name": "winner",
          "type": "address"
        },
        {
          "indexed": false,
          "internalType": "uint256",
          "name": "price",
          "type": "uint256"
        }
      ],
      "name": "JobAssigned",
      "type": "event"
    },
    {
      "anonymous": false,
      "inputs": [
        {
          "indexed": true,
          "internalType": "uint256",
          "name": "jobId",
          "type": "uint256"
        }
      ],
      "name": "JobCancelled",
      "type": "event"
    },
    {
      "anonymous": false,
      "inputs": [
        {
          "indexed": true,
          "internalType": "uint256",
          "name": "jobId",
          "type": "uint256"
        },
        {
          "indexed": true,
          "internalType": "address",
          "name": "winner",
          "type": "address"
        },
        {
          "indexed": false,
          "internalType": "uint256",
          "name": "payout",
          "type": "uint256"
        },
        {
          "indexed": false,
          "internalType": "string",
          "name": "resultURI",
          "type": "string"
        }
      ],
      "name": "JobCompleted",
      "type": "event"
    },
    {
      "anonymous": false,
      "inputs": [
        {
          "indexed": true,
          "internalType": "uint256",
          "name": "jobId",
          "type": "uint256"
        },
        {
          "indexed": true,
          "internalType": "address",
          "name": "poster",
          "type": "address"
        },
        {
          "indexed": false,
          "internalType": "uint256",
          "name": "budget",
          "type": "uint256"
        },
        {
          "indexed": false,
          "internalType": "uint256",
          "name": "deadline",
          "type": "uint256"
        },
        {
          "indexed": false,
          "internalType": "string",
          "name": "taskURI",
          "type": "string"
        }
      ],
      "name": "JobPosted",
      "type": "event"
    },
    {
      "inputs": [
        {
          "internalType": "uint256",
          "name": "jobId",
          "type": "uint256"
        },
        {
          "internalType": "address",
          "name": "winner",
          "type": "address"
        },
        {
          "internalType": "uint256",
          "name": "agreedPrice",
          "type": "uint256"
        }
      ],
      "name": "assignJob",
      "outputs": [],
      "stateMutability": "nonpayable",
      "type": "function"
    },
    {
      "inputs": [
        {
          "internalType": "uint256",
          "name": "jobId",
          "type": "uint256"
        }
      ],
      "name": "cancelJob",
      "outputs": [],
      "stateMutability": "nonpayable",
      "type": "function"
    },
    {
      "inputs": [
        {
          "internalType": "uint256",
          "name": "jobId",
          "type": "uint256"
        },
        {
          "internalType": "string",
          "name": "resultURI",
          "type": "string"
        }
      ],
      "name": "completeJob",
      "outputs": [],
      "stateMutability": "nonpayable",
      "type": "function"
    },
    {
      "inputs": [
        {
          "internalType": "uint256",
          "name": "jobId",
          "type": "uint256"
        }
      ],
      "name": "getBids",
      "outputs": [
        {
          "components": [
            {
              "internalType": "address",
              "name": "agent",
              "type": "address"
            },
            {
              "internalType": "uint256",
              "name": "price",
              "type": "uint256"
            },
            {
              "internalType": "string",
              "name": "metadataURI",
              "type": "string"
            },
            {
              "internalType": "uint256",
              "name": "submittedAt",
              "type": "uint256"
            }
          ],
          "internalType": "struct AgentMarketplace.Bid[]",
          "name": "",
          "type": "tuple[]"
        }
      ],
      "stateMutability": "view",
      "type": "function"
    },
    {
      "inputs": [],
      "name": "jobCount",
      "outputs": [
        {
          "internalType": "uint256",
          "name": "",
          "type": "uint256"
        }
      ],
      "stateMutability": "view",
      "type": "function"
    },
    {
      "inputs": [
        {
          "internalType": "uint256",
          "name": "",
          "type": "uint256"
        }
      ],
      "name": "jobs",
      "outputs": [
        {
          "internalType": "address",
          "name": "poster",
          "type": "address"
        },
        {
          "internalType": "string",
          "name": "taskURI",
          "type": "string"
        },
        {
          "internalType": "uint256",
          "name": "budget",
          "type": "uint256"
        },
        {
          "internalType": "uint256",
          "name": "deadline",
          "type": "uint256"
        },
        {
          "internalType": "address",
          "name": "winner",
          "type": "address"
        },
        {
          "internalType": "uint256",
          "name": "agreedPrice",
          "type": "uint256"
        },
        {
          "internalType": "enum AgentMarketplace.JobStatus",
          "name": "status",
          "type": "uint8"
        },
        {
          "internalType": "string",
          "name": "resultURI",
          "type": "string"
        }
      ],
      "stateMutability": "view",
      "type": "function"
    },
    {
      "inputs": [
        {
          "internalType": "string",
          "name": "taskURI",
          "type": "string"
        },
        {
          "internalType": "uint256",
          "name": "budget",
          "type": "uint256"
        },
        {
          "internalType": "uint256",
          "name": "deadline",
          "type": "uint256"
        }
      ],
      "name": "postJob",
      "outputs": [
        {
          "internalType": "uint256",
          "name": "jobId",
          "type": "uint256"
        }
      ],
      "stateMutability": "nonpayable",
      "type": "function"
    },
    {
      "inputs": [],
      "name": "reputationRegistry",
      "outputs": [
        {
          "internalType": "contract IReputationRegistry",
          "name": "",
          "type": "address"
        }
      ],
      "stateMutability": "view",
      "type": "function"
    },
    {
      "inputs": [
        {
          "internalType": "uint256",
          "name": "jobId",
          "type": "uint256"
        },
        {
          "internalType": "uint256",
          "name": "price",
          "type": "uint256"
        },
        {
          "internalType": "string",
          "name": "metadataURI",
          "type": "string"
        }
      ],
      "name": "submitBid",
      "outputs": [],
      "stateMutability": "nonpayable",
      "type": "function"
    },
    {
      "inputs": [],
      "name": "usdc",
      "outputs": [
        {
          "internalType": "contract IERC20",
          "name": "",
          "type": "address"
        }
      ],
      "stateMutability": "view",
      "type": "function"
    }
  ],
  "bytecode": "0x60c060405234801561001057600080fd5b50604051620017ff380380620017ff83398101604081905261003191610088565b60017f9b779b17422d0df92223018b32b4d1fa46e071723d6817e2486d003becc55f00556001600160a01b039182166080521660a0526100bb565b80516001600160a01b038116811461008357600080fd5b919050565b6000806040838503121561009b57600080fd5b6100a48361006c565b91506100b26020840161006c565b90509250929050565b60805160a0516116fb62000104600039600081816101760152610a9f0152600081816101200152818161078601528181610946015281816109d10152610c1201526116fb6000f3fe608060405234801561001057600080fd5b506004361061009e5760003560e01c80634c5d8a0f116100665780634c5d8a0f1461015a578063c8db44e314610171578063d190508f14610198578063d3fa1d62146101ab578063e97569f1146101be57600080fd5b8063131d9a27146100a357806314c60bdd146100cc578063180aedf3146100e15780631dffa3dc146101085780633e413bee1461011b575b600080fd5b6100b66100b136600461108e565b6101d1565b6040516100c391906110ed565b60405180910390f35b6100df6100da3660046111cd565b6102ff565b005b6100f46100ef36600461108e565b610519565b6040516100c3989796959493929190611236565b6100df61011636600461108e565b61068a565b6101427f000000000000000000000000000000000000000000000000000000000000000081565b6040516001600160a01b0390911681526020016100c3565b61016360005481565b6040519081526020016100c3565b6101427f000000000000000000000000000000000000000000000000000000000000000081565b6100df6101a63660046112be565b61083c565b6101636101b936600461130a565b610b68565b6100df6101cc36600461135b565b610e49565b606060026000838152602001908152602001600020805480602002602001604051908101604052809291908181526020016000905b828210156102f4576000848152602090819020604080516080810182526004860290920180546001600160a01b03168352600181015493830193909352600283018054929392918401916102599061139f565b80601f01602080910402602001604051908101604052809291908181526020018280546102859061139f565b80156102d25780601f106102a7576101008083540402835291602001916102d2565b820191906000526020600020905b8154815290600101906020018083116102b557829003601f168201915b5050505050815260200160038201548152505081526020019060010190610206565b505050509050919050565b600084815260016020526040812090600682015460ff16600381111561032757610327611220565b146103685760405162461bcd60e51b815260206004820152600c60248201526b2537b1103737ba1037b832b760a11b60448201526064015b60405180910390fd5b806003015442106103ad5760405162461bcd60e51b815260206004820152600f60248201526e111958591b1a5b99481c185cdcd959608a1b604482015260640161035f565b80600201548411156103f65760405162461bcd60e51b8152602060048201526012602482015271109a5908195e18d959591cc8189d5919d95d60721b604482015260640161035f565b600260008681526020019081526020016000206040518060800160405280336001600160a01b0316815260200186815260200185858080601f01602080910402602001604051908101604052809392919081815260200183838082843760009201829052509385525050426020938401525083546001808201865594825290829020835160049092020180546001600160a01b0319166001600160a01b039092169190911781559082015192810192909255604081015190919060028201906104bf908261143d565b50606082015181600301555050336001600160a01b0316857f25e6f67ed3a4f1523db627163a8f9de502ca1fe40fe6dd94a8a12a085981b68286868660405161050a93929190611526565b60405180910390a35050505050565b6001602081905260009182526040909120805491810180546001600160a01b03909316926105469061139f565b80601f01602080910402602001604051908101604052809291908181526020018280546105729061139f565b80156105bf5780601f10610594576101008083540402835291602001916105bf565b820191906000526020600020905b8154815290600101906020018083116105a257829003601f168201915b5050505060028301546003840154600485015460058601546006870154600788018054979895979496506001600160a01b0390931694919360ff90911692906106079061139f565b80601f01602080910402602001604051908101604052809291908181526020018280546106339061139f565b80156106805780601f1061065557610100808354040283529160200191610680565b820191906000526020600020905b81548152906001019060200180831161066357829003601f168201915b5050505050905088565b610692611040565b600081815260016020526040902080546001600160a01b031633146106ea5760405162461bcd60e51b815260206004820152600e60248201526d2737ba103537b1103837b9ba32b960911b604482015260640161035f565b6000600682015460ff16600381111561070557610705611220565b146107495760405162461bcd60e51b815260206004820152601460248201527321b0b71037b7363c9031b0b731b2b61037b832b760611b604482015260640161035f565b60068101805460ff191660031790558054600282015460405163a9059cbb60e01b81526001600160a01b03928316600482015260248101919091527f00000000000000000000000000000000000000000000000000000000000000009091169063a9059cbb906044016020604051808303816000875af11580156107d1573d6000803e3d6000fd5b505050506040513d601f19601f820116820180604052508101906107f59190611549565b5060405182907f58243f872c550ad02802199ade99eb4250f6bb19e9abbf2d3de7b969c0eb5e4f90600090a25061083960016000805160206116a683398151915255565b50565b610844611040565b600083815260016020819052604090912090600682015460ff16600381111561086f5761086f611220565b146108ab5760405162461bcd60e51b815260206004820152600c60248201526b139bdd08185cdcda59db995960a21b604482015260640161035f565b60048101546001600160a01b031633146108f45760405162461bcd60e51b815260206004820152600a6024820152692737ba103bb4b73732b960b11b604482015260640161035f565b60068101805460ff1916600217905560078101610912838583611572565b50600581015460048083015460405163a9059cbb60e01b81526001600160a01b0391821692810192909252602482018390527f0000000000000000000000000000000000000000000000000000000000000000169063a9059cbb906044016020604051808303816000875af115801561098f573d6000803e3d6000fd5b505050506040513d601f19601f820116820180604052508101906109b39190611549565b508082600201541115610a7857815460028301546001600160a01b037f000000000000000000000000000000000000000000000000000000000000000081169263a9059cbb92911690610a07908590611649565b6040516001600160e01b031960e085901b1681526001600160a01b03909216600483015260248201526044016020604051808303816000875af1158015610a52573d6000803e3d6000fd5b505050506040513d601f19601f82011682018060405250810190610a769190611549565b505b600482810154604051636353586b60e01b81526001600160a01b03918216928101929092527f00000000000000000000000000000000000000000000000000000000000000001690636353586b90602401600060405180830381600087803b158015610ae357600080fd5b505af1158015610af7573d6000803e3d6000fd5b50505060048301546040516001600160a01b03909116915086907ffc7c06f7552ac4ab873b37e1252d278ec5f4893aef4c42f33ac9535134965df090610b4290859089908990611526565b60405180910390a35050610b6360016000805160206116a683398151915255565b505050565b6000808311610bae5760405162461bcd60e51b81526020600482015260126024820152710427564676574206d757374206265203e20360741b604482015260640161035f565b428211610bf05760405162461bcd60e51b815260206004820152601060248201526f111958591b1a5b99481a5b881c185cdd60821b604482015260640161035f565b6040516323b872dd60e01b8152336004820152306024820152604481018490527f00000000000000000000000000000000000000000000000000000000000000006001600160a01b0316906323b872dd906064016020604051808303816000875af1158015610c63573d6000803e3d6000fd5b505050506040513d601f19601f82011682018060405250810190610c879190611549565b506000808154610c9690611662565b9190508190559050604051806101000160405280336001600160a01b0316815260200186868080601f01602080910402602001604051908101604052809392919081815260200183838082843760009201829052509385525050506020820186905260408201859052606082018190526080820181905260a09091019081526040805160208082018352600080835293810191909152848352600180825291909220835181546001600160a01b0319166001600160a01b039091161781559183015190820190610d66908261143d565b50604082015181600201556060820151816003015560808201518160040160006101000a8154816001600160a01b0302191690836001600160a01b0316021790555060a0820151816005015560c08201518160060160006101000a81548160ff02191690836003811115610ddc57610ddc611220565b021790555060e08201516007820190610df5908261143d565b50905050336001600160a01b0316817f67c82897e5f69f65ea1dedf603d8e313eb4d259590557c3523f1eb382e02e39f85858989604051610e39949392919061167b565b60405180910390a3949350505050565b600083815260016020526040902080546001600160a01b03163314610ea15760405162461bcd60e51b815260206004820152600e60248201526d2737ba103537b1103837b9ba32b960911b604482015260640161035f565b6000600682015460ff166003811115610ebc57610ebc611220565b14610ef85760405162461bcd60e51b815260206004820152600c60248201526b2537b1103737ba1037b832b760a11b604482015260640161035f565b6001600160a01b038316610f405760405162461bcd60e51b815260206004820152600f60248201526e15da5b9b995c881c995c5d5a5c9959608a1b604482015260640161035f565b60008211610f845760405162461bcd60e51b815260206004820152601160248201527005072696365206d757374206265203e203607c1b604482015260640161035f565b8060020154821115610fcf5760405162461bcd60e51b8152602060048201526014602482015273141c9a58d948195e18d959591cc8189d5919d95d60621b604482015260640161035f565b6004810180546001600160a01b0319166001600160a01b0385169081179091556005820183905560068201805460ff1916600117905560405183815285907f898bc564cda81ae03de35932c77e4b0b6829d29459ff0330b6e7b2f900aa3ada9060200160405180910390a350505050565b61104861105c565b60026000805160206116a683398151915255565b6000805160206116a68339815191525460020361108c57604051633ee5aeb560e01b815260040160405180910390fd5b565b6000602082840312156110a057600080fd5b5035919050565b6000815180845260005b818110156110cd576020818501810151868301820152016110b1565b506000602082860101526020601f19601f83011685010191505092915050565b60006020808301818452808551808352604092508286019150828160051b87010184880160005b8381101561117657888303603f19018552815180516001600160a01b03168452878101518885015286810151608088860181905290611155828701826110a7565b60609384015196909301959095525094870194925090860190600101611114565b509098975050505050505050565b60008083601f84011261119657600080fd5b50813567ffffffffffffffff8111156111ae57600080fd5b6020830191508360208285010111156111c657600080fd5b9250929050565b600080600080606085870312156111e357600080fd5b8435935060208501359250604085013567ffffffffffffffff81111561120857600080fd5b61121487828801611184565b95989497509550505050565b634e487b7160e01b600052602160045260246000fd5b6001600160a01b0389811682526101006020830181905260009161125c8483018c6110a7565b91508960408501528860608501528088166080850152508560a08401526004851061129757634e487b7160e01b600052602160045260246000fd5b8460c084015282810360e08401526112af81856110a7565b9b9a5050505050505050505050565b6000806000604084860312156112d357600080fd5b83359250602084013567ffffffffffffffff8111156112f157600080fd5b6112fd86828701611184565b9497909650939450505050565b6000806000806060858703121561132057600080fd5b843567ffffffffffffffff81111561133757600080fd5b61134387828801611184565b90989097506020870135966040013595509350505050565b60008060006060848603121561137057600080fd5b8335925060208401356001600160a01b038116811461138e57600080fd5b929592945050506040919091013590565b600181811c908216806113b357607f821691505b6020821081036113d357634e487b7160e01b600052602260045260246000fd5b50919050565b634e487b7160e01b600052604160045260246000fd5b601f821115610b6357600081815260208120601f850160051c810160208610156114165750805b601f850160051c820191505b8181101561143557828155600101611422565b505050505050565b815167ffffffffffffffff811115611457576114576113d9565b61146b81611465845461139f565b846113ef565b602080601f8311600181146114a057600084156114885750858301515b600019600386901b1c1916600185901b178555611435565b600085815260208120601f198616915b828110156114cf578886015182559484019460019091019084016114b0565b50858210156114ed5787850151600019600388901b60f8161c191681555b5050505050600190811b01905550565b81835281816020850137506000828201602090810191909152601f909101601f19169091010190565b8381526040602082015260006115406040830184866114fd565b95945050505050565b60006020828403121561155b57600080fd5b8151801515811461156b57600080fd5b9392505050565b67ffffffffffffffff83111561158a5761158a6113d9565b61159e83611598835461139f565b836113ef565b6000601f8411600181146115d257600085156115ba5750838201355b600019600387901b1c1916600186901b17835561162c565b600083815260209020601f19861690835b8281101561160357868501358255602094850194600190920191016115e3565b50868210156116205760001960f88860031b161c19848701351681555b505060018560011b0183555b5050505050565b634e487b7160e01b600052601160045260246000fd5b8181038181111561165c5761165c611633565b92915050565b60006001820161167457611674611633565b5060010190565b84815283602082015260606040820152600061169b6060830184866114fd565b969550505050505056fe9b779b17422d0df92223018b32b4d1fa46e071723d6817e2486d003becc55f00a2646970667358221220badda3c36b034f3664f0fb44ead1ee2b1ccc1513fd68a7b67005f624648dd32764736f6c63430008140033",
  "linkReferences": {},
  "deployedLinkReferences": {}
}